{
  "_format": "hh-sol-artifact-1",
  "contractName": "NftMarketplace",
  "sourceName": "contracts/NftMarketPlace.sol",
  "abi": [
    {
      "inputs": [
        {
          "internalType": "address",
          "name": "nftAddress",
          "type": "address"
        },
        {
          "internalType": "uint256",
          "name": "tokenId",
          "type": "uint256"
        }
      ],
      "name": "NftMarketplace_AlreadyListed",
      "type": "error"
    },
    {
      "inputs": [],
      "name": "NftMarketplace_NoProceeds",
      "type": "error"
    },
    {
      "inputs": [],
      "name": "NftMarketplace_NotApprovedForMarketplace",
      "type": "error"
    },
    {
      "inputs": [
        {
          "internalType": "address",
          "name": "nftAddress",
          "type": "address"
        },
        {
          "internalType": "uint256",
          "name": "tokenId",
          "type": "uint256"
        }
      ],
      "name": "NftMarketplace_NotListed",
      "type": "error"
    },
    {
      "inputs": [],
      "name": "NftMarketplace_NotOwner",
      "type": "error"
    },
    {
      "inputs": [],
      "name": "NftMarketplace_PriceMustBeAboveZero",
      "type": "error"
    },
    {
      "inputs": [
        {
          "internalType": "address",
          "name": "nftAddress",
          "type": "address"
        },
        {
          "internalType": "uint256",
          "name": "tokenId",
          "type": "uint256"
        },
        {
          "internalType": "uint256",
          "name": "price",
          "type": "uint256"
        }
      ],
      "name": "NftMarketplace_PriceNotMet",
      "type": "error"
    },
    {
      "inputs": [],
      "name": "NftMarketplace_TransferFailed",
      "type": "error"
    },
    {
      "anonymous": false,
      "inputs": [
        {
          "indexed": true,
          "internalType": "address",
          "name": "buyer",
          "type": "address"
        },
        {
          "indexed": false,
          "internalType": "address",
          "name": "nftAddress",
          "type": "address"
        },
        {
          "indexed": false,
          "internalType": "uint256",
          "name": "tokenId",
          "type": "uint256"
        },
        {
          "indexed": false,
          "internalType": "uint256",
          "name": "price",
          "type": "uint256"
        }
      ],
      "name": "ItemBought",
      "type": "event"
    },
    {
      "anonymous": false,
      "inputs": [
        {
          "indexed": true,
          "internalType": "address",
          "name": "seller",
          "type": "address"
        },
        {
          "indexed": false,
          "internalType": "address",
          "name": "nftAddress",
          "type": "address"
        },
        {
          "indexed": false,
          "internalType": "uint256",
          "name": "tokenId",
          "type": "uint256"
        }
      ],
      "name": "ItemCanceled",
      "type": "event"
    },
    {
      "anonymous": false,
      "inputs": [
        {
          "indexed": true,
          "internalType": "address",
          "name": "seller",
          "type": "address"
        },
        {
          "indexed": false,
          "internalType": "address",
          "name": "nftAddress",
          "type": "address"
        },
        {
          "indexed": false,
          "internalType": "uint256",
          "name": "tokenId",
          "type": "uint256"
        },
        {
          "indexed": false,
          "internalType": "uint256",
          "name": "price",
          "type": "uint256"
        }
      ],
      "name": "ItemListed",
      "type": "event"
    },
    {
      "inputs": [
        {
          "internalType": "address",
          "name": "nftAddress",
          "type": "address"
        },
        {
          "internalType": "uint256",
          "name": "tokenId",
          "type": "uint256"
        },
        {
          "internalType": "uint256",
          "name": "price",
          "type": "uint256"
        }
      ],
      "name": "buyItem",
      "outputs": [],
      "stateMutability": "payable",
      "type": "function"
    },
    {
      "inputs": [
        {
          "internalType": "address",
          "name": "nftAddress",
          "type": "address"
        },
        {
          "internalType": "uint256",
          "name": "tokenId",
          "type": "uint256"
        }
      ],
      "name": "cancleListing",
      "outputs": [],
      "stateMutability": "nonpayable",
      "type": "function"
    },
    {
      "inputs": [
        {
          "internalType": "address",
          "name": "seller",
          "type": "address"
        }
      ],
      "name": "getProceeds",
      "outputs": [
        {
          "internalType": "uint256",
          "name": "",
          "type": "uint256"
        }
      ],
      "stateMutability": "view",
      "type": "function"
    },
    {
      "inputs": [
        {
          "internalType": "address",
          "name": "nftAddress",
          "type": "address"
        },
        {
          "internalType": "uint256",
          "name": "tokenId",
          "type": "uint256"
        }
      ],
      "name": "getlisting",
      "outputs": [
        {
          "components": [
            {
              "internalType": "uint256",
              "name": "price",
              "type": "uint256"
            },
            {
              "internalType": "address",
              "name": "seller",
              "type": "address"
            }
          ],
          "internalType": "struct NftMarketplace.Listing",
          "name": "",
          "type": "tuple"
        }
      ],
      "stateMutability": "view",
      "type": "function"
    },
    {
      "inputs": [
        {
          "internalType": "address",
          "name": "nftAddress",
          "type": "address"
        },
        {
          "internalType": "uint256",
          "name": "tokenId",
          "type": "uint256"
        },
        {
          "internalType": "uint256",
          "name": "price",
          "type": "uint256"
        }
      ],
      "name": "listItem",
      "outputs": [],
      "stateMutability": "nonpayable",
      "type": "function"
    },
    {
      "inputs": [
        {
          "internalType": "address",
          "name": "nftAddress",
          "type": "address"
        },
        {
          "internalType": "uint256",
          "name": "tokenId",
          "type": "uint256"
        },
        {
          "internalType": "uint256",
          "name": "newPrice",
          "type": "uint256"
        }
      ],
      "name": "updateListing",
      "outputs": [],
      "stateMutability": "nonpayable",
      "type": "function"
    },
    {
      "inputs": [],
      "name": "withdrawProceeds",
      "outputs": [],
      "stateMutability": "nonpayable",
      "type": "function"
    }
  ],
  "bytecode": "0x608060405234801561001057600080fd5b5060016000819055506116ae806100286000396000f3fe6080604052600436106100705760003560e01c80639038e6931161004e5780639038e69314610118578063e66925a41461012f578063f6b45c4614610158578063f772adf11461017457610070565b806330cfeda91461007557806344837757146100b257806389bfd38f146100ef575b600080fd5b34801561008157600080fd5b5061009c600480360381019061009791906112e2565b61019d565b6040516100a99190611328565b60405180910390f35b3480156100be57600080fd5b506100d960048036038101906100d4919061136f565b6101e6565b6040516100e691906113fc565b60405180910390f35b3480156100fb57600080fd5b5061011660048036038101906101119190611417565b6102b1565b005b34801561012457600080fd5b5061012d6106f7565b005b34801561013b57600080fd5b506101566004803603810190610151919061136f565b610861565b005b610172600480360381019061016d9190611417565b610b36565b005b34801561018057600080fd5b5061019b60048036038101906101969190611417565b610f48565b005b6000600260008373ffffffffffffffffffffffffffffffffffffffff1673ffffffffffffffffffffffffffffffffffffffff168152602001908152602001600020549050919050565b6101ee61124f565b600160008473ffffffffffffffffffffffffffffffffffffffff1673ffffffffffffffffffffffffffffffffffffffff1681526020019081526020016000206000838152602001908152602001600020604051806040016040529081600082015481526020016001820160009054906101000a900473ffffffffffffffffffffffffffffffffffffffff1673ffffffffffffffffffffffffffffffffffffffff1673ffffffffffffffffffffffffffffffffffffffff1681525050905092915050565b8282336000600160008573ffffffffffffffffffffffffffffffffffffffff1673ffffffffffffffffffffffffffffffffffffffff1681526020019081526020016000206000848152602001908152602001600020604051806040016040529081600082015481526020016001820160009054906101000a900473ffffffffffffffffffffffffffffffffffffffff1673ffffffffffffffffffffffffffffffffffffffff1673ffffffffffffffffffffffffffffffffffffffff168152505090506000816000015111156103bf5783836040517f0b4afe1f0000000000000000000000000000000000000000000000000000000081526004016103b6929190611479565b60405180910390fd5b868633600083905060008173ffffffffffffffffffffffffffffffffffffffff16636352211e856040518263ffffffff1660e01b81526004016104029190611328565b602060405180830381865afa15801561041f573d6000803e3d6000fd5b505050506040513d601f19601f8201168201806040525081019061044391906114b7565b90508073ffffffffffffffffffffffffffffffffffffffff168373ffffffffffffffffffffffffffffffffffffffff16146104aa576040517f6008b18300000000000000000000000000000000000000000000000000000000815260040160405180910390fd5b60008a116104e4576040517f5cfb724300000000000000000000000000000000000000000000000000000000815260040160405180910390fd5b60008c90503073ffffffffffffffffffffffffffffffffffffffff168173ffffffffffffffffffffffffffffffffffffffff1663081812fc8e6040518263ffffffff1660e01b81526004016105399190611328565b602060405180830381865afa158015610556573d6000803e3d6000fd5b505050506040513d601f19601f8201168201806040525081019061057a91906114b7565b73ffffffffffffffffffffffffffffffffffffffff16146105c7576040517f0342b49400000000000000000000000000000000000000000000000000000000815260040160405180910390fd5b60405180604001604052808c81526020013373ffffffffffffffffffffffffffffffffffffffff16815250600160008f73ffffffffffffffffffffffffffffffffffffffff1673ffffffffffffffffffffffffffffffffffffffff16815260200190815260200160002060008e81526020019081526020016000206000820151816000015560208201518160010160006101000a81548173ffffffffffffffffffffffffffffffffffffffff021916908373ffffffffffffffffffffffffffffffffffffffff1602179055509050503373ffffffffffffffffffffffffffffffffffffffff167fd547e933094f12a9159076970143ebe73234e64480317844b0dcb36117116de48e8e8e6040516106e0939291906114e4565b60405180910390a250505050505050505050505050565b6000600260003373ffffffffffffffffffffffffffffffffffffffff1673ffffffffffffffffffffffffffffffffffffffff16815260200190815260200160002054905060008111610775576040517f803bc5a000000000000000000000000000000000000000000000000000000000815260040160405180910390fd5b6000600260003373ffffffffffffffffffffffffffffffffffffffff1673ffffffffffffffffffffffffffffffffffffffff1681526020019081526020016000208190555060003373ffffffffffffffffffffffffffffffffffffffff16826040516107e09061154c565b60006040518083038185875af1925050503d806000811461081d576040519150601f19603f3d011682016040523d82523d6000602084013e610822565b606091505b505090508061085d576040517fc7be981f00000000000000000000000000000000000000000000000000000000815260040160405180910390fd5b5050565b818133600083905060008173ffffffffffffffffffffffffffffffffffffffff16636352211e856040518263ffffffff1660e01b81526004016108a49190611328565b602060405180830381865afa1580156108c1573d6000803e3d6000fd5b505050506040513d601f19601f820116820180604052508101906108e591906114b7565b90508073ffffffffffffffffffffffffffffffffffffffff168373ffffffffffffffffffffffffffffffffffffffff161461094c576040517f6008b18300000000000000000000000000000000000000000000000000000000815260040160405180910390fd5b86866000600160008473ffffffffffffffffffffffffffffffffffffffff1673ffffffffffffffffffffffffffffffffffffffff1681526020019081526020016000206000838152602001908152602001600020604051806040016040529081600082015481526020016001820160009054906101000a900473ffffffffffffffffffffffffffffffffffffffff1673ffffffffffffffffffffffffffffffffffffffff1673ffffffffffffffffffffffffffffffffffffffff168152505090506000816000015111610a585782826040517fa1541357000000000000000000000000000000000000000000000000000000008152600401610a4f929190611479565b60405180910390fd5b600160008b73ffffffffffffffffffffffffffffffffffffffff1673ffffffffffffffffffffffffffffffffffffffff16815260200190815260200160002060008a81526020019081526020016000206000808201600090556001820160006101000a81549073ffffffffffffffffffffffffffffffffffffffff021916905550503373ffffffffffffffffffffffffffffffffffffffff167f9ba1a3cb55ce8d63d072a886f94d2a744f50cddf82128e897d0661f5ec6231588b8b604051610b22929190611479565b60405180910390a250505050505050505050565b610b3e6111f6565b82826000600160008473ffffffffffffffffffffffffffffffffffffffff1673ffffffffffffffffffffffffffffffffffffffff1681526020019081526020016000206000838152602001908152602001600020604051806040016040529081600082015481526020016001820160009054906101000a900473ffffffffffffffffffffffffffffffffffffffff1673ffffffffffffffffffffffffffffffffffffffff1673ffffffffffffffffffffffffffffffffffffffff168152505090506000816000015111610c4a5782826040517fa1541357000000000000000000000000000000000000000000000000000000008152600401610c41929190611479565b60405180910390fd5b6000600160008873ffffffffffffffffffffffffffffffffffffffff1673ffffffffffffffffffffffffffffffffffffffff1681526020019081526020016000206000878152602001908152602001600020604051806040016040529081600082015481526020016001820160009054906101000a900473ffffffffffffffffffffffffffffffffffffffff1673ffffffffffffffffffffffffffffffffffffffff1673ffffffffffffffffffffffffffffffffffffffff168152505090508060000151341015610d56578686866040517f65f706f5000000000000000000000000000000000000000000000000000000008152600401610d4d939291906114e4565b60405180910390fd5b3460026000836020015173ffffffffffffffffffffffffffffffffffffffff1673ffffffffffffffffffffffffffffffffffffffff16815260200190815260200160002054610da59190611590565b60026000836020015173ffffffffffffffffffffffffffffffffffffffff1673ffffffffffffffffffffffffffffffffffffffff16815260200190815260200160002081905550600160008873ffffffffffffffffffffffffffffffffffffffff1673ffffffffffffffffffffffffffffffffffffffff16815260200190815260200160002060008781526020019081526020016000206000808201600090556001820160006101000a81549073ffffffffffffffffffffffffffffffffffffffff021916905550508673ffffffffffffffffffffffffffffffffffffffff166342842e0e826020015133896040518463ffffffff1660e01b8152600401610eaf939291906115c4565b600060405180830381600087803b158015610ec957600080fd5b505af1158015610edd573d6000803e3d6000fd5b505050503373ffffffffffffffffffffffffffffffffffffffff167f263223b1dd81e51054a4e6f791d45a4a1ddb4aadcd93a2dfd892615c3fdac18788888460000151604051610f2f939291906114e4565b60405180910390a250505050610f43611245565b505050565b82826000600160008473ffffffffffffffffffffffffffffffffffffffff1673ffffffffffffffffffffffffffffffffffffffff1681526020019081526020016000206000838152602001908152602001600020604051806040016040529081600082015481526020016001820160009054906101000a900473ffffffffffffffffffffffffffffffffffffffff1673ffffffffffffffffffffffffffffffffffffffff1673ffffffffffffffffffffffffffffffffffffffff1681525050905060008160000151116110545782826040517fa154135700000000000000000000000000000000000000000000000000000000815260040161104b929190611479565b60405180910390fd5b858533600083905060008173ffffffffffffffffffffffffffffffffffffffff16636352211e856040518263ffffffff1660e01b81526004016110979190611328565b602060405180830381865afa1580156110b4573d6000803e3d6000fd5b505050506040513d601f19601f820116820180604052508101906110d891906114b7565b90508073ffffffffffffffffffffffffffffffffffffffff168373ffffffffffffffffffffffffffffffffffffffff161461113f576040517f6008b18300000000000000000000000000000000000000000000000000000000815260040160405180910390fd5b88600160008d73ffffffffffffffffffffffffffffffffffffffff1673ffffffffffffffffffffffffffffffffffffffff16815260200190815260200160002060008c8152602001908152602001600020600001819055503373ffffffffffffffffffffffffffffffffffffffff167fd547e933094f12a9159076970143ebe73234e64480317844b0dcb36117116de48c8c8c6040516111e1939291906114e4565b60405180910390a25050505050505050505050565b60026000540361123b576040517f08c379a000000000000000000000000000000000000000000000000000000000815260040161123290611658565b60405180910390fd5b6002600081905550565b6001600081905550565b604051806040016040528060008152602001600073ffffffffffffffffffffffffffffffffffffffff1681525090565b600080fd5b600073ffffffffffffffffffffffffffffffffffffffff82169050919050565b60006112af82611284565b9050919050565b6112bf816112a4565b81146112ca57600080fd5b50565b6000813590506112dc816112b6565b92915050565b6000602082840312156112f8576112f761127f565b5b6000611306848285016112cd565b91505092915050565b6000819050919050565b6113228161130f565b82525050565b600060208201905061133d6000830184611319565b92915050565b61134c8161130f565b811461135757600080fd5b50565b60008135905061136981611343565b92915050565b600080604083850312156113865761138561127f565b5b6000611394858286016112cd565b92505060206113a58582860161135a565b9150509250929050565b6113b88161130f565b82525050565b6113c7816112a4565b82525050565b6040820160008201516113e360008501826113af565b5060208201516113f660208501826113be565b50505050565b600060408201905061141160008301846113cd565b92915050565b6000806000606084860312156114305761142f61127f565b5b600061143e868287016112cd565b935050602061144f8682870161135a565b92505060406114608682870161135a565b9150509250925092565b611473816112a4565b82525050565b600060408201905061148e600083018561146a565b61149b6020830184611319565b9392505050565b6000815190506114b1816112b6565b92915050565b6000602082840312156114cd576114cc61127f565b5b60006114db848285016114a2565b91505092915050565b60006060820190506114f9600083018661146a565b6115066020830185611319565b6115136040830184611319565b949350505050565b600081905092915050565b50565b600061153660008361151b565b915061154182611526565b600082019050919050565b600061155782611529565b9150819050919050565b7f4e487b7100000000000000000000000000000000000000000000000000000000600052601160045260246000fd5b600061159b8261130f565b91506115a68361130f565b92508282019050808211156115be576115bd611561565b5b92915050565b60006060820190506115d9600083018661146a565b6115e6602083018561146a565b6115f36040830184611319565b949350505050565b600082825260208201905092915050565b7f5265656e7472616e637947756172643a207265656e7472616e742063616c6c00600082015250565b6000611642601f836115fb565b915061164d8261160c565b602082019050919050565b6000602082019050818103600083015261167181611635565b905091905056fea2646970667358221220d6ef4623dad6dbd296326582331dac7b7b29c0b8c2165a940385717d3748803c64736f6c63430008110033",
  "linkReferences": {},
  "deployedLinkReferences": {}
}