{
  "_format": "hh-sol-artifact-1",
  "contractName": "NftMarketplace",
  "sourceName": "contracts/NftMarketPlace.sol",
  "abi": [
    {
      "inputs": [],
      "name": "NftMarketplace_NotApprovedForMarketplace",
      "type": "error"
    },
    {
      "inputs": [],
      "name": "NftMarketplace_PriceMustBeAboveZero",
      "type": "error"
    },
    {
      "anonymous": false,
      "inputs": [
        {
          "indexed": true,
          "internalType": "address",
          "name": "seller",
          "type": "address"
        },
        {
          "indexed": false,
          "internalType": "address",
          "name": "nftAddress",
          "type": "address"
        },
        {
          "indexed": false,
          "internalType": "uint256",
          "name": "tokenId",
          "type": "uint256"
        },
        {
          "indexed": false,
          "internalType": "uint256",
          "name": "price",
          "type": "uint256"
        }
      ],
      "name": "ItemList",
      "type": "event"
    },
    {
      "inputs": [
        {
          "internalType": "address",
          "name": "nftAddress",
          "type": "address"
        },
        {
          "internalType": "uint256",
          "name": "tokenId",
          "type": "uint256"
        },
        {
          "internalType": "uint256",
          "name": "price",
          "type": "uint256"
        }
      ],
      "name": "listItem",
      "outputs": [],
      "stateMutability": "nonpayable",
      "type": "function"
    }
  ],
  "bytecode": "0x608060405234801561001057600080fd5b50610463806100206000396000f3fe608060405234801561001057600080fd5b506004361061002b5760003560e01c806389bfd38f14610030575b600080fd5b61004a60048036038101906100459190610328565b61004c565b005b60008111610086576040517f5cfb724300000000000000000000000000000000000000000000000000000000815260040160405180910390fd5b60008390503073ffffffffffffffffffffffffffffffffffffffff168173ffffffffffffffffffffffffffffffffffffffff1663081812fc856040518263ffffffff1660e01b81526004016100db919061038a565b602060405180830381865afa1580156100f8573d6000803e3d6000fd5b505050506040513d601f19601f8201168201806040525081019061011c91906103ba565b73ffffffffffffffffffffffffffffffffffffffff1614610169576040517f0342b49400000000000000000000000000000000000000000000000000000000815260040160405180910390fd5b60405180604001604052808381526020013373ffffffffffffffffffffffffffffffffffffffff168152506000808673ffffffffffffffffffffffffffffffffffffffff1673ffffffffffffffffffffffffffffffffffffffff16815260200190815260200160002060008581526020019081526020016000206000820151816000015560208201518160010160006101000a81548173ffffffffffffffffffffffffffffffffffffffff021916908373ffffffffffffffffffffffffffffffffffffffff1602179055509050503373ffffffffffffffffffffffffffffffffffffffff167f4356b9bb6d0b8c76c91c514b9dd79473640a142aaa02c6b4909963ccedef603c858585604051610281939291906103f6565b60405180910390a250505050565b600080fd5b600073ffffffffffffffffffffffffffffffffffffffff82169050919050565b60006102bf82610294565b9050919050565b6102cf816102b4565b81146102da57600080fd5b50565b6000813590506102ec816102c6565b92915050565b6000819050919050565b610305816102f2565b811461031057600080fd5b50565b600081359050610322816102fc565b92915050565b6000806000606084860312156103415761034061028f565b5b600061034f868287016102dd565b935050602061036086828701610313565b925050604061037186828701610313565b9150509250925092565b610384816102f2565b82525050565b600060208201905061039f600083018461037b565b92915050565b6000815190506103b4816102c6565b92915050565b6000602082840312156103d0576103cf61028f565b5b60006103de848285016103a5565b91505092915050565b6103f0816102b4565b82525050565b600060608201905061040b60008301866103e7565b610418602083018561037b565b610425604083018461037b565b94935050505056fea2646970667358221220e7e3e0fd37efe2e49dff25ff0ed944d7d20a909dfb051fd6fdc8808d402a0d4e64736f6c63430008110033",
  "linkReferences": {},
  "deployedLinkReferences": {}
}